:100000008FC0A9C0A8C0A7C0A6C0A5C0A4C0A3C0D7
:10001000A2C078C4A0C087C49EC09DC09CC09BC025
:100020009AC099C098C000407A10F35A00A0724E4E
:1000300018090010A5D4E80000E87648170000E48D
:100040000B54020000CA9A3B000000E1F5050000D5
:1000500080969800000040420F000000A08601003A
:100060000000102700000000E8030000000064000A
:10007000000000000A000000000001000000000075
:100080002C76D888DC674F0823DFC1DFAE59E1B199
:10009000B796E5E3E453C63AE651997696E8E6C2A8
:1000A0008426EB898C9B62ED407C6FFCEFBC9C9FAF
:1000B00040F2BAA56FA5F490055A2AF75C936B6CD1
:1000C000F9676DC11BFCE0E40D47FEF520E6B500C5
:1000D000D0ED902E0300943577050080841E080033
:1000E00000204E0A000000C80C333333330F986EE3
:1000F00012831141EF8D2114893BE65516CFFEE6A0
:10010000DB18D1844B381BF77C1D901DA4BBE42465
:10011000203284725E228100C9F124ECA1E53D27E2
:1001200011241FBECFE5D4E0DEBFCDBF11E0A0E6B5
:10013000B0E0E6EAF6E102C005900D92AC3DB107F1
:10014000D9F722E0ACEDB1E001C01D92AB31B207AE
:10015000E1F71FD4A6CA54CF80E487B983E086B9FB
:10016000379A369A3699FECF089597B1907E8F715F
:10017000892B87B9369A3699FECF84B195B1089507
:10018000CF92DF92EF92FF921F93CF93DF93182FBE
:10019000D62FC0E0C12CD12C7601CD1741F0812F94
:1001A000E4DFC80ED91EE11CF11CCF5FF6CF2C2F67
:1001B00030E040E050E0C701B60139D7C901DF9116
:1001C000CF911F91FF90EF90DF90CF9008955D9BAE
:1001D000FECF8CB980E090E00895CF93DF93EC01DF
:1001E0008991882311F0F3DFFBCFDF91CF91089540
:1001F00020917A0030917B002817390748F420912C
:10020000E601211105C020E822BB21E02093600017
:1002100020917C0030917D008217930708F412BA78
:10022000089568E080E0ACDF9093F8018093F701D7
:10023000BC0180E090E0E2D52CE53FE84CE851E4D9
:1002400093D6B0D5709300026093FF01CB0108955F
:1002500068E082E095DF9093EE018093ED01BC01B0
:1002600080E090E0CBD52DE33AE049EE51E47CD636
:1002700099D57093050260930402CB0108952091F3
:10028000E9018091FD019091FE01820F911D9093F3
:10029000FE018093FD011092E901823523E092076F
:1002A00078F1825593409093FE018093FD018091F7
:1002B000E7019091E80101969093E8018093E701AE
:1002C000209175003091760082179307C8F012BA1A
:1002D0001092E8011092E7018091E601811109C0B6
:1002E0008FEF9FE328E3815090402040E1F700C06A
:1002F00000001092E60180E882BB81E080936000FC
:1003000008958F929F92AF92BF92CF92DF92EF9219
:10031000FF9268E083E034DFBC0180E090E06ED5BE
:1003200026EE3FE34EE450E41FD66B017C01609360
:100330000A0270930B0280930C0290930D0220E04E
:1003400030E048E455E40CD61816C4F480916000FF
:10035000811103C080E890E040DF1092F301109219
:10036000F4011092F5011092F60180917E009091B7
:100370007F00909302028093010291C0A701960131
:1003800060E070E48EE495E4A5D420E030E040E83D
:100390005FE337D49B01AC0160E070E882EA94E44B
:1003A00099D46093EF017093F0018093F1019093E1
:1003B000F20120E030EE4BE954E423D426E636E6A1
:1003C00042E651E487D420E030E040EF51E419D414
:1003D0006B017C016093F3017093F4018093F5014C
:1003E0009093F60120E030E048EC51E4B9D51816BE
:1003F000FCF460917E0070917F0080E090E0FED47C
:100400004B015C0120E030E048EC51E4C701B6014B
:10041000F8D320E030E040EF51E4A6D59B01AC01D9
:10042000C501B401EED3BED4709302026093010201
:1004300020E030E048E252E4C701B60191D5181639
:1004400034F48CE293E3909302028093010220E063
:1004500030E048EC51E4C701B60138D487FF1FC033
:1004600060917E0070917F0080E090E0C7D44B01E6
:100470005C01A701960160E070E088EC91E4C1D3D3
:1004800020E030E040EF51E46FD59B01AC01C501A5
:10049000B401B8D387D47093020260930102FF9035
:1004A000EF90DF90CF90BF90AF909F908F90089586
:1004B0000F931F9382B3803819F489E990E002C04A
:1004C00088EA90E08ADE1DDF88EB90E086DE6091AE
:1004D000F3017091F4018091F5019091F6010AEE1B
:1004E00011E021E041E0C5D5C80177DE85EC90E060
:1004F00074DE4AE0B8018091010290910202FED5BB
:10050000C8016BDE89EF90E068DEA2DE8FEF90E03D
:1005100064DE4AE0B8018091040290910502EED5B4
:10052000C8015BDE85E091E058DE81E690E055DEB3
:1005300089EF90E052DE75DE85E191E04EDE4AE023
:10054000B8018091FF0190910002D8D5C80145DE25
:1005500089EF90E042DE8091DC01813049F48CE14A
:1005600091E03BDE87E690E038DE89EF90E035DE13
:1005700088E291E032DE83E391E02FDE86E990E0CD
:100580002CDE89EC91E029DE8FE391E026DE4AE063
:100590006AEE71E080917A0090917B00AFD58AEE8F
:1005A00091E01BDE8DE691E018DE4AE06AEE71E034
:1005B00080917C0090917D00A1D58AEE91E00DDEC6
:1005C00081E891E00ADE4AE06AEE71E08091750010
:1005D0009091760093D58AEE91E0FFDD86E990E078
:1005E000FCDD80917500909176002091E7013091BB
:1005F000E8014AE06AEE71E0821B930B7FD582B37B
:10060000803819F486E991E006C08091E6018130D6
:1006100031F48FEA91E0E1DD8AEE91E0DEDD87ECF6
:1006200091E01F910F91D9CD8091E401883030F095
:100630001092E5011092E40110920E028091E50102
:10064000813009F092C080E09091E401891760F454
:10065000282F30E0F901E05FFD4F9081F901E35967
:10066000FF4F90838F5FF0CF8DE690E021D57093A0
:10067000E3016093E20140910E024035E9F44091BC
:100680000F024D33C9F44091E4014330A8F06115E5
:10069000710591F0409175005091760064177507CF
:1006A00058F4CA01861B970B9093E8018093E701E9
:1006B00012BA81E08093E60180910E028E34C1F47B
:1006C00080910F028D33A1F48091E401833080F09A
:1006D0006091E2017091E301CB01805E9E4288301F
:1006E000974030F482E090E085D781E08093DD018F
:1006F00080910E028634C1F480910F028D33A1F4F3
:100700008091E401833080F06091E2017091E30117
:10071000CB0180519742883B9B4030F480E090E0D1
:1007200069D781E08093DD0180910E028735B9F4AD
:1007300080910F028D3399F48091E401833078F039
:100740006091E2017091E301CB01CC978C39944A1E
:1007500030F484E090E04ED781E08093DD01109288
:10076000E5011092E40110920E02089584E090E0F9
:100770003CD720917500309176008217930751F095
:100780009C012A503109253F3F4F20F49093760079
:100790008093750082E090E028D720917A00309114
:1007A0007B008217930751F09C01215E3E422F3C53
:1007B000374020F490937B0080937A0080E090E0B3
:1007C00014D720917C0030917D008217930751F05F
:1007D0009C0121513742273B3B4020F490937D0000
:1007E00080937C001092DD010895CF931ADD8091F3
:1007F00001029091020244962091FF013091000283
:100800008217930708F07CC08091EB019091EC0176
:100810009BBD8ABD10920702109206028091600073
:10082000811103C08BEC91E0D8DCC0E0809106021E
:1008300090910702019609F463C0F3DC2091FF0157
:100840003091000280910102909102028217930779
:1008500050F48AB59BB58F3F934028F48AB59BB579
:1008600001969BBD8ABD2091FF01309100028091CD
:100870000102909102022817390748F48AB59BB506
:10088000029728F08AB59BB501979BBD8ABD8091E0
:10089000060290910702803127E2920799F0803298
:1008A0002EE4920779F0803325E7920759F08034DF
:1008B0002CE9920739F0803523EC920719F0803645
:1008C0009A4E79F4DCDCC1111092600080916000D6
:1008D000813021F0811104C0EBDD02C0C1E001C014
:1008E000C0E0809106029091070201969093070262
:1008F0008093060289E993E00197F1F700C096CF53
:10090000CF9108951F920F920FB60F9211248F93DB
:100910008091E9018F5F8093E9018F910F900FBE65
:100920000F901F9018951F920F920FB60F921124DF
:100930008F939F93EF93FF938CB1809303029091D9
:10094000E50191111DC08A3091F08D3081F09091B8
:10095000E4019A3060F4E091E401F0E0E25FFD4FE1
:1009600080838091E4018F5F8093E40109C0E0916E
:10097000E401F0E0E25FFD4F108281E08093E50149
:10098000FF91EF919F918F910F900FBE0F901F904D
:10099000189580E881BB82E087BBDEDB8FB58B6872
:1009A0008FBD8EB581608EBD8FEF93E097BD86BD04
:1009B00080EF90E09BBD8ABD85B5876085BD88B717
:1009C000816088BF89B7816089BF83B7856083BF35
:1009D00010BC87E189B98AB188698AB980B586680F
:1009E00080BDC4DE2FEF8FEF98E021508040904013
:1009F000E1F700C0000078948FEF91E10197F1F7E3
:100A000000C0000080917E0090917F0090930202D0
:100A100080930102CFEFD3E011E003DC8091FF016E
:100A200090910002E5DBE1DE2ADC12DC2091FF017F
:100A30003091000280910402909105022817390735
:100A400068F02091FF0130910002809104029091A2
:100A500005028217930708F093C0A8C08091010295
:100A60009091020244972817390758F7DBBDCABD99
:100A70009FEF2FE784E0915020408040E1F700C0D5
:100A80000000E6DB4AE061E670E0809104029091AC
:100A9000050234D3609104027091050280E090E079
:100AA000ADD122E538EB4EE95FE314D17BD17093F1
:100AB0001A02609319021BBC1ABC97DE9FEF2FE34A
:100AC00082E0915020408040E1F700C00000C0DB90
:100AD0001093DC014AE067E670E080910402909197
:100AE00005020CD3B5DB9DDB209104023091050299
:100AF0008091190290911A0228173907E0F4809129
:100B0000010290910202865991092091FF013091D2
:100B100000022817390778F48AB59BB5209179002F
:100B2000820F911D9BBD8ABD8FEF93E20197F1F774
:100B300000C00000D7CF10920902109208028091E5
:100B40000802909109028436910509F47ACF85B79D
:100B50008F7885BF85B7806885BF85B7806885BF7A
:100B6000889585B78F7785BF80910802909109029B
:100B70000196909309028093080237DE80DBDFCF75
:100B800034DE52DD109260009FEF2FE388E3915036
:100B900020408040E1F700C000008ADC70DB8091DB
:100BA000DD01813009F039CFE1DD37CF4AE061E680
:100BB00070E080E090E0A2D21092DC011092090275
:100BC0001092080280910802909109028A3F9105D3
:100BD000B8F685B78F7885BF85B7806885BF85B73C
:100BE000806885BF889585B78F7785BF809108021B
:100BF00090910902019690930902809308023FDBCD
:100C0000E1CF5058BB27AA270ED070C161D130F078
:100C100066D120F031F49F3F11F41EF456C10EF45A
:100C2000E095E7FB4CC1E92F72D180F3BA17620758
:100C300073078407950718F071F49EF58AC10EF4C6
:100C4000E0950B2EBA2FA02D0B01B90190010C01DC
:100C5000CA01A0011124FF27591B99F0593F50F4F4
:100C6000503E68F11A16F040A22F232F342F44274C
:100C7000585FF3CF469537952795A795F040539544
:100C8000C9F77EF41F16BA0B620B730B840BBAF014
:100C90009150A1F0FF0FBB1F661F771F881FC2F77F
:100CA0000EC0BA0F621F731F841F48F48795779593
:100CB0006795B795F7959E3F08F0B3CF9395880F4A
:100CC00008F09927EE0F979587950895D4D008F4EA
:100CD00081E008950CD00AC102D140F0F9D030F083
:100CE00021F45F3F19F0EBC0511134C1EEC00FD1B8
:100CF00098F39923C9F35523B1F3951B550BBB27E3
:100D0000AA2762177307840738F09F5F5F4F220F8F
:100D1000331F441FAA1FA9F333D00E2E3AF0E0E888
:100D200030D091505040E695001CCAF729D0FE2FD4
:100D300027D0660F771F881FBB1F26173707480766
:100D4000AB07B0E809F0BB0B802DBF01FF2793581C
:100D50005F4F2AF09E3F510568F0B1C0FBC05F3F76
:100D6000ECF3983EDCF3869577956795B795F79504
:100D70009F5FC9F7880F911D9695879597F90895FC
:100D8000E1E0660F771F881FBB1F62177307840798
:100D9000BA0720F0621B730B840BBA0BEE1F88F7A7
:100DA000E0950895BCD088F09F5790F0B92F99270F
:100DB000B751A0F0D1F0660F771F881F991F1AF066
:100DC000BA95C9F712C0B13081F0C3D0B1E008952F
:100DD000C0C0672F782F8827B85F39F0B93FCCF3B0
:100DE000869577956795B395D9F73EF4909580955C
:100DF000709561957F4F8F4F9F4F0895E89409C07C
:100E000097FB3EF490958095709561957F4F8F4F3D
:100E10009F4F9923A9F0F92F96E9BB279395F69553
:100E2000879577956795B795F111F8CFFAF4BB0FD1
:100E300011F460FF1BC06F5F7F4F8F4F9F4F16C035
:100E4000882311F096E911C0772321F09EE8872FBF
:100E5000762F05C0662371F096E8862F70E060E07B
:100E60002AF09A95660F771F881FDAF7880F9695F4
:100E7000879597F90895990F0008550FAA0BE0E898
:100E8000FEEF16161706E807F907C0F0121613064C
:100E9000E407F50798F0621B730B840B950B39F48C
:100EA0000A2661F0232B242B252B21F408950A26F2
:100EB00009F4A140A6958FEF811D811D089597F932
:100EC0009F6780E870E060E008959FEF80EC0895F0
:100ED00000240A9416161706180609060895002419
:100EE0000A9412161306140605060895092E039493
:100EF000000C11F4882352F0BB0F40F4BF2B11F407
:100F000060FF04C06F5F7F4F8F4F9F4F089557FD65
:100F10009058440F551F59F05F3F71F04795880F67
:100F200097FB991F61F09F3F79F0879508951216FE
:100F300013061406551FF2CF4695F1DF08C01616AA
:100F400017061806991FF1CF86957105610508945B
:100F50000895E894BB2766277727CB0197F9089572
:100F60008ADF08F48FEF08950BD0C0CFB1DF28F0EF
:100F7000B6DF18F0952309F0A2CFA7CF1124EACF4E
:100F8000C6DFA0F3959FD1F3950F50E0551F629FE8
:100F9000F001729FBB27F00DB11D639FAA27F00DD2
:100FA000B11DAA1F649F6627B00DA11D661F829FF9
:100FB0002227B00DA11D621F739FB00DA11D621FDE
:100FC000839FA00D611D221F749F3327A00D611DFB
:100FD000231F849F600D211D822F762F6A2F1124DD
:100FE0009F5750408AF0E1F088234AF0EE0FFF1F30
:100FF000BB1F661F771F881F91505040A9F79E3F67
:10100000510570F05CCFA6CF5F3FECF3983EDCF368
:10101000869577956795B795F795E7959F5FC1F7A3
:10102000FE2B880F911D9695879597F90895A1E25B
:101030001A2EAA1BBB1BFD010DC0AA1FBB1FEE1F52
:10104000FF1FA217B307E407F50720F0A21BB30B9D
:10105000E40BF50B661F771F881F991F1A9469F719
:1010600060957095809590959B01AC01BD01CF0175
:101070000895EF920F931F93CF93DF93E80147FDFD
:1010800002C034E001C034E1042E000C550B57FFC0
:1010900003C0519541955109E32E022F242FAE0133
:1010A00065D0CE01DF91CF911F910F91EF90089500
:1010B0001F93FC0199278827BC01E89411911032F5
:1010C000E9F3193010F01E30C8F31B3249F01D321D
:1010D00041F4689405C01CD0610F711D811D911DE4
:1010E000119110531A30B8F33EF490958095709595
:1010F00061957F4F8F4F9F4F1F910895BB274A30B7
:1011000031F4992322F4BDE2909581959F4F16C04A
:10111000592F482F372F262F660F771F881F991FAB
:10112000660F771F881F991F620F731F841F951FFB
:10113000660F771F881F991F0895BB27FB0155274E
:10114000AA27880F991FAA1FA41710F0A41B839524
:101150005051B9F7A05DAA3308F0A95DA19300979B
:1011600079F7B111B1931192CB012FC2A9E0B0E090
:10117000EBEBF8E065C26A01122FB02E2BE32017CB
:1011800020F0FF24F394F00E02C02CE3F22E0F2D7A
:1011900027E0AE014F5F5F4F40D1BC014981842FF2
:1011A0008970813031F0E1FC06C0E0FE06C090E2BB
:1011B00005C09DE203C09BE201C090E05E2D50712E
:1011C00043FF3CC0911102C083E001C084E081175D
:1011D00018F4212F281B01C020E051110BC0F6018B
:1011E000822F30E2882319F031938150FBCFC20E59
:1011F000D11C20E0992329F0D6019C93F601319669
:101200006F01C6010396E2FE0AC03EE4D6013C939C
:1012100041E411964C93119712963C9306C03EE61A
:10122000F601308341E641833283FC01322F40E2F4
:10123000332309F442C041933150FACF42FF44C0F6
:10124000911102C083E001C084E0811718F4212FBE
:10125000281B01C020E051110BC0F601822F30E2A3
:10126000882319F031938150FBCFC20ED11C20E0AE
:10127000992329F0D6019C93F60131966F01C6019E
:101280000396E2FE0BC039E4D6013C933EE411968E
:101290003C93119736E412963C9307C039E6F60169
:1012A00030833EE6318336E63283FC01322F40E262
:1012B000332319F041933150FBCFFC01E20FF11DB4
:1012C00010828EEF9FEFA6C021E030E0911102C0A6
:1012D00020E030E0161617061CF4FB01319602C020
:1012E000E1E0F0E02E0F3F1FBB2021F0EB2DF0E0FE
:1012F000319602C0E0E0F0E02E0F3F1FE12FF0E05A
:101300002E173F071CF4121B212F01C020E08E2D49
:10131000887159F4F601822F30E2882319F0319355
:101320008150FBCFC20ED11C20E0992329F0D601B9
:101330009C93F60131966F0151110BC0F601822F7B
:1013400090E3882319F091938150FBCFC20ED11CFA
:1013500020E00F2D060F9A81342F307144FF03C017
:10136000913309F40150101624F4093018F008E004
:1013700001C001E0AB0177FF02C040E050E0FB019B
:10138000E41BF50BA1E0B0E0AC0FBD1FEA0FFB1FA3
:101390008EE2A82E4B01801A91080B2D10E01195BA
:1013A000019511094F3FBFEF5B0721F4D601AC92C5
:1013B00011966D01641775072CF08416950614F4C8
:1013C000818101C080E3415051093196D6011196C7
:1013D0007D014017510724F0D6018C936701E2CFBD
:1013E0006417750739F4963320F4953319F43111E5
:1013F00001C081E3F6018083F701822F90E2882308
:1014000019F091938150FBCFF701E20FF11D10828B
:1014100080E090E02996ECE02FC1283008F027E02A
:101420003327DA01990F311D87FD91600096610520
:10143000710539F432602E5F3D9330E32A95E1F770
:1014400008959F3F30F080387105610509F03C5FD9
:101450003C5F3D93913008F08068911DDF93CF93FE
:101460001F930F93FF92EF92192F987F9695E92F74
:1014700096959695E90FFF27E058FF4F9927332758
:10148000EE24FF24A701E70105900894079428F4AF
:10149000360FE71EF81E491F511D660F771F881F64
:1014A000991F0694A1F70590079428F4E70EF81EFB
:1014B000491F561FC11D770F881F991F661F06946D
:1014C000A1F70590079428F4F80E491F561FC71F6F
:1014D000D11D880F991F661F771F0694A1F70590ED
:1014E000079420F4490F561FC71FD81F990F661F76
:1014F000771F881F0694A9F784911095177041F003
:10150000D695C79557954795F794E7941A95C1F7DF
:10151000E6E2F0E06894159015913591659195910A
:1015200005907FE27395E118F10A430B560BC90B46
:10153000D009C0F7E10CF11E431F561FC91FD01D73
:101540007EF4703311F48A95E6CFE894015030F0C0
:10155000080F0AF40027021708F4202F2395022F02
:101560007A3328F079E37D932A95E9F710C07D93CB
:101570002A9589F606949795679537951795179448
:10158000E118F10A430B560BC90BD00998F02395CB
:101590007E9173957A3308F070E37C932013B8F74B
:1015A0007E9170617D9330F0839571E37D9370E35C
:1015B0002A95E1F71124EF90FF900F911F91CF91A1
:1015C000DF91992787FD90950895DC01FC01672F35
:1015D00071917723E1F7329704C07C916D9370830A
:1015E0006291AE17BF07C8F30895A8E1B0E042E0EA
:1015F00050E005C012D0272F11C0DC01CB01FC0147
:10160000E199FECF06C0FFBBEEBBE09A31960DB26A
:101610000D9241505040B8F70895262FE199FECF22
:101620009FBB8EBB2DBB0FB6F894E29AE19A0FBE1A
:10163000019608952F923F924F925F926F927F9200
:101640008F929F92AF92BF92CF92DF92EF92FF92D2
:101650000F931F93CF93DF93CDB7DEB7CA1BDB0B7E
:101660000FB6F894DEBF0FBECDBF09942A88398823
:1016700048885F846E847D848C849B84AA84B9842A
:10168000C884DF80EE80FD800C811B81AA81B98136
:10169000CE0FD11D0FB6F894DEBF0FBECDBFED014A
:0616A0000895F894FFCF4D
:1016A60001300000000000300000000000300000A3
:1016B6000000000000A0050001010C30B42D7837B1
:1016C6004E6F2074656D70657261747572652073F6
:1016D600656E736F72200D0A004C6F616420656E33
:1016E60061626C65640D0A004C6F61642064697305
:1016F60061626C65640D0A0054656D706572617493
:1017060075726520002064656772656573204365A0
:101716006C736975730D0A54656D706572617475C5
:1017260072652061646A75737465642063686172AA
:10173600676520656E643A2000206D560D0A0056D6
:101746005F696E2000206D560D0A565F696E5F69EF
:10175600646C652000565F6F75742000565F6D706F
:1017660070745F6D696E20004669726D776172658F
:101776003A200041546D656761385F415F3100432F
:101786006F6D6D616E64733A0D0A503D506F7765EB
:10179600726F666620286D696E290D0A4E3D4C6F84
:1017A6006164206F4E20286D56293A20000D0A46A6
:1017B6003D4C6F6164206F464620286D56293A20BD
:1017C600000D0A573D5761746368646F6720286D82
:1017D600696E293A20004D696E7574657320756EC1
:1017E60074696C206C6F6164206F66663A20004DE8
:1017F600696E7574657320756E74696C206C6F61A3
:1018060064206F6E3A20000D0A0A00417420636856
:0C1816006172676520656E640D0A0000B9
:00000001FF
